{
  "_format": "hh-sol-artifact-1",
  "contractName": "CrowdChain",
  "sourceName": "contracts/CrowdChain.sol",
  "abi": [
    {
      "inputs": [],
      "name": "campaignCount",
      "outputs": [
        {
          "internalType": "uint256",
          "name": "",
          "type": "uint256"
        }
      ],
      "stateMutability": "view",
      "type": "function"
    },
    {
      "inputs": [
        {
          "internalType": "uint256",
          "name": "",
          "type": "uint256"
        }
      ],
      "name": "campaigns",
      "outputs": [
        {
          "internalType": "address",
          "name": "owner",
          "type": "address"
        },
        {
          "internalType": "string",
          "name": "title",
          "type": "string"
        },
        {
          "internalType": "string",
          "name": "description",
          "type": "string"
        },
        {
          "internalType": "uint256",
          "name": "targetAmount",
          "type": "uint256"
        },
        {
          "internalType": "uint256",
          "name": "deadline",
          "type": "uint256"
        },
        {
          "internalType": "uint256",
          "name": "collectedAmount",
          "type": "uint256"
        },
        {
          "internalType": "string",
          "name": "imageUrl",
          "type": "string"
        }
      ],
      "stateMutability": "view",
      "type": "function"
    },
    {
      "inputs": [
        {
          "internalType": "address",
          "name": "_owner",
          "type": "address"
        },
        {
          "internalType": "string",
          "name": "_title",
          "type": "string"
        },
        {
          "internalType": "string",
          "name": "_description",
          "type": "string"
        },
        {
          "internalType": "uint256",
          "name": "_targetAmount",
          "type": "uint256"
        },
        {
          "internalType": "uint256",
          "name": "_deadline",
          "type": "uint256"
        },
        {
          "internalType": "string",
          "name": "_imageUrl",
          "type": "string"
        }
      ],
      "name": "createCampaign",
      "outputs": [
        {
          "internalType": "uint256",
          "name": "",
          "type": "uint256"
        }
      ],
      "stateMutability": "nonpayable",
      "type": "function"
    },
    {
      "inputs": [
        {
          "internalType": "uint256",
          "name": "_id",
          "type": "uint256"
        }
      ],
      "name": "donateCamapaign",
      "outputs": [],
      "stateMutability": "payable",
      "type": "function"
    },
    {
      "inputs": [],
      "name": "getCampaigns",
      "outputs": [
        {
          "components": [
            {
              "internalType": "address",
              "name": "owner",
              "type": "address"
            },
            {
              "internalType": "string",
              "name": "title",
              "type": "string"
            },
            {
              "internalType": "string",
              "name": "description",
              "type": "string"
            },
            {
              "internalType": "uint256",
              "name": "targetAmount",
              "type": "uint256"
            },
            {
              "internalType": "uint256",
              "name": "deadline",
              "type": "uint256"
            },
            {
              "internalType": "uint256",
              "name": "collectedAmount",
              "type": "uint256"
            },
            {
              "internalType": "string",
              "name": "imageUrl",
              "type": "string"
            },
            {
              "internalType": "address[]",
              "name": "donators",
              "type": "address[]"
            },
            {
              "internalType": "uint256[]",
              "name": "donations",
              "type": "uint256[]"
            }
          ],
          "internalType": "struct CrowdChain.Campaign[]",
          "name": "",
          "type": "tuple[]"
        }
      ],
      "stateMutability": "view",
      "type": "function"
    },
    {
      "inputs": [
        {
          "internalType": "uint256",
          "name": "_id",
          "type": "uint256"
        }
      ],
      "name": "getDonators",
      "outputs": [
        {
          "internalType": "address[]",
          "name": "",
          "type": "address[]"
        },
        {
          "internalType": "uint256[]",
          "name": "",
          "type": "uint256[]"
        }
      ],
      "stateMutability": "view",
      "type": "function"
    }
  ],
  "bytecode": "0x6080604052600060015534801561001557600080fd5b50610f60806100256000396000f3fe6080604052600436106100555760003560e01c80630fa91fa91461005a578063141961bc1461009157806368875d9a146100c45780637274e30d146100d95780639943e3a1146100fd578063a6b036331461011d575b600080fd5b34801561006657600080fd5b5061007a610075366004610946565b61013f565b60405161008892919061095f565b60405180910390f35b34801561009d57600080fd5b506100b16100ac366004610946565b61020e565b6040516100889796959493929190610a29565b6100d76100d2366004610946565b6103eb565b005b3480156100e557600080fd5b506100ef60015481565b604051908152602001610088565b34801561010957600080fd5b506100ef610118366004610b36565b6104b2565b34801561012957600080fd5b506101326105a4565b6040516100889190610c65565b600081815260208181526040918290206007810180548451818502810185019095528085526060948594929360080192909184918301828280156101ac57602002820191906000526020600020905b81546001600160a01b0316815260019091019060200180831161018e575b50505050509150808054806020026020016040519081016040528092919081815260200182805480156101fe57602002820191906000526020600020905b8154815260200190600101908083116101ea575b5050505050905091509150915091565b600060208190529081526040902080546001820180546001600160a01b03909216929161023a90610d74565b80601f016020809104026020016040519081016040528092919081815260200182805461026690610d74565b80156102b35780601f10610288576101008083540402835291602001916102b3565b820191906000526020600020905b81548152906001019060200180831161029657829003601f168201915b5050505050908060020180546102c890610d74565b80601f01602080910402602001604051908101604052809291908181526020018280546102f490610d74565b80156103415780601f1061031657610100808354040283529160200191610341565b820191906000526020600020905b81548152906001019060200180831161032457829003601f168201915b50505050509080600301549080600401549080600501549080600601805461036890610d74565b80601f016020809104026020016040519081016040528092919081815260200182805461039490610d74565b80156103e15780601f106103b6576101008083540402835291602001916103e1565b820191906000526020600020905b8154815290600101906020018083116103c457829003601f168201915b5050505050905087565b60008181526020819052604080822080549151349391926001600160a01b03169084908381818185875af1925050503d8060008114610446576040519150601f19603f3d011682016040523d82523d6000602084013e61044b565b606091505b5050905080156104ac57828260050160008282546104699190610dbe565b9091555050600782018054600181810183556000928352602080842090920180546001600160a01b03191633179055600885018054918201815583529120018390555b50505050565b60015460009081526020819052604081206004810154421161051a5760405162461bcd60e51b815260206004820152601e60248201527f446561646c696e65206d75737420626520696e20746865206675747572650000604482015260640160405180910390fd5b80546001600160a01b0319166001600160a01b038916178155600181016105418882610e28565b50600281016105508782610e28565b50600381018590556004810184905560006005820155600681016105748482610e28565b506001805490600061058583610ee8565b9190505550600180546105989190610f01565b98975050505050505050565b6060600060015467ffffffffffffffff8111156105c3576105c3610a93565b60405190808252806020026020018201604052801561064c57816020015b61063960405180610120016040528060006001600160a01b0316815260200160608152602001606081526020016000815260200160008152602001600081526020016060815260200160608152602001606081525090565b8152602001906001900390816105e15790505b50905060005b60015481101561094057600081815260208181526040918290208251610120810190935280546001600160a01b031683526001810180549193928492908401919061069c90610d74565b80601f01602080910402602001604051908101604052809291908181526020018280546106c890610d74565b80156107155780601f106106ea57610100808354040283529160200191610715565b820191906000526020600020905b8154815290600101906020018083116106f857829003601f168201915b5050505050815260200160028201805461072e90610d74565b80601f016020809104026020016040519081016040528092919081815260200182805461075a90610d74565b80156107a75780601f1061077c576101008083540402835291602001916107a7565b820191906000526020600020905b81548152906001019060200180831161078a57829003601f168201915b505050505081526020016003820154815260200160048201548152602001600582015481526020016006820180546107de90610d74565b80601f016020809104026020016040519081016040528092919081815260200182805461080a90610d74565b80156108575780601f1061082c57610100808354040283529160200191610857565b820191906000526020600020905b81548152906001019060200180831161083a57829003601f168201915b50505050508152602001600782018054806020026020016040519081016040528092919081815260200182805480156108b957602002820191906000526020600020905b81546001600160a01b0316815260019091019060200180831161089b575b505050505081526020016008820180548060200260200160405190810160405280929190818152602001828054801561091157602002820191906000526020600020905b8154815260200190600101908083116108fd575b50505050508152505083838151811061092c5761092c610f14565b602090810291909101015250600101610652565b50919050565b60006020828403121561095857600080fd5b5035919050565b604080825283519082018190526000906020906060840190828701845b828110156109a15781516001600160a01b03168452928401929084019060010161097c565b5050508381038285015284518082528583019183019060005b818110156109d6578351835292840192918401916001016109ba565b5090979650505050505050565b6000815180845260005b81811015610a09576020818501810151868301820152016109ed565b506000602082860101526020601f19601f83011685010191505092915050565b6001600160a01b038816815260e060208201819052600090610a4d908301896109e3565b8281036040840152610a5f81896109e3565b90508660608401528560808401528460a084015282810360c0840152610a8581856109e3565b9a9950505050505050505050565b634e487b7160e01b600052604160045260246000fd5b600082601f830112610aba57600080fd5b813567ffffffffffffffff80821115610ad557610ad5610a93565b604051601f8301601f19908116603f01168101908282118183101715610afd57610afd610a93565b81604052838152866020858801011115610b1657600080fd5b836020870160208301376000602085830101528094505050505092915050565b60008060008060008060c08789031215610b4f57600080fd5b86356001600160a01b0381168114610b6657600080fd5b9550602087013567ffffffffffffffff80821115610b8357600080fd5b610b8f8a838b01610aa9565b96506040890135915080821115610ba557600080fd5b610bb18a838b01610aa9565b9550606089013594506080890135935060a0890135915080821115610bd557600080fd5b50610be289828a01610aa9565b9150509295509295509295565b60008151808452602080850194506020840160005b83811015610c295781516001600160a01b031687529582019590820190600101610c04565b509495945050505050565b60008151808452602080850194506020840160005b83811015610c2957815187529582019590820190600101610c49565b600060208083018184528085518083526040925060408601915060408160051b87010184880160005b83811015610d6657888303603f19018552815180516001600160a01b0316845261012088820151818a870152610cc6828701826109e3565b9150508782015185820389870152610cde82826109e3565b606084810151908801526080808501519088015260a0808501519088015260c080850151888303828a01529193509150610d1883826109e3565b9250505060e08083015186830382880152610d338382610bef565b925050506101008083015192508582038187015250610d528183610c34565b968901969450505090860190600101610c8e565b509098975050505050505050565b600181811c90821680610d8857607f821691505b60208210810361094057634e487b7160e01b600052602260045260246000fd5b634e487b7160e01b600052601160045260246000fd5b80820180821115610dd157610dd1610da8565b92915050565b601f821115610e23576000816000526020600020601f850160051c81016020861015610e005750805b601f850160051c820191505b81811015610e1f57828155600101610e0c565b5050505b505050565b815167ffffffffffffffff811115610e4257610e42610a93565b610e5681610e508454610d74565b84610dd7565b602080601f831160018114610e8b5760008415610e735750858301515b600019600386901b1c1916600185901b178555610e1f565b600085815260208120601f198616915b82811015610eba57888601518255948401946001909101908401610e9b565b5085821015610ed85787850151600019600388901b60f8161c191681555b5050505050600190811b01905550565b600060018201610efa57610efa610da8565b5060010190565b81810381811115610dd157610dd1610da8565b634e487b7160e01b600052603260045260246000fdfea2646970667358221220fd7fb9328f11d59fd104bb94866bc586dd0b61761316553595926086eaa1496264736f6c63430008170033",
  "linkReferences": {},
  "deployedLinkReferences": {}
}